:100000000C946D000C9495000C9495000C94950044
:100010000C9495000C9495000C9495000C9495000C
:100020000C9495000C9495000C9495000C949500FC
:100030000C9495000C9495000C9495000C949500EC
:100040000C948C030C9495000C947F020C94590230
:100050000C9495000C9495000C9495000C949500CC
:100060000C9495000C9495000000000024002700DB
:100070002A000000000023002600290004040404D4
:100080000404040402020202020203030303030342
:10009000010204081020408001020408102001021F
:1000A00004081020000000080002010000030407FB
:1000B00000000000000000000D0A53656E7420501F
:1000C00061636B657420446174610D0A0000000077
:1000D00000250028002B0000530D11241FBECFEF78
:1000E000D8E0DEBFCDBF27E0A4EBB1E001C01D9298
:1000F000AB37B207E1F711E0A0E0B1E0ECEEF1E2DE
:1001000002C005900D92A43BB107D9F710E0CDE6EF
:10011000D0E004C02197FE010E94C610CC36D10762
:10012000C9F70E9466050C94F4100C940000A82FE7
:10013000B92F459A55274AE04A9905C05A95E1F7E3
:100140004A95D1F745C061E04F9B01C0FCCF8AE0E2
:100150008A95F1F798E04F9901C007C060FD0EC085
:1001600061E00894000000000EC060FD04C060E083
:100170008894000008C060E0089405C061E088949D
:10018000000000000000771F9A9539F08FE08A95F3
:10019000F1F7000000000000DECF7D9394E66130AF
:1001A00029F04F9908C09A9551F0FBCF4F9B03C09F
:1001B0009A9529F0FBCF87E08A95F1F7CBCF772787
:1001C0007D9345984A9B01C0FDCF992788270895C4
:1001D000459881E099270895A82FB92F459A4A9903
:1001E00001C0FDCF7D91703031F198E077FF13C0F1
:1001F0005E9A84E08A95F1F7000000005E989A9577
:1002000029F0771F8DE08A95F1F7F0CF8BE08A9582
:10021000F1F70000E7CF9A9539F0771F82E18A95D0
:10022000F1F700000000E2CF80E18A95F1F70000CD
:1002300000000000D7CF459885E04A9B03C08A950F
:10024000D9F703C0992788270895992781E0089551
:10025000CF92DF92EF92FF920F931F93CF93DF9392
:100260006C017A018B01C0E0D0E0CE15DF0589F08A
:10027000D8016D918D01D601ED91FC910190F08135
:10028000E02DC6010995892B11F47E0102C021964B
:10029000ECCFC701DF91CF911F910F91FF90EF90AD
:1002A000DF90CF900895089580E090E00895FC01DC
:1002B000538D448D252F30E0842F90E0821B930BCB
:1002C000541710F0CF96089501970895FC01918D71
:1002D000828D981761F0828DDF01A80FB11D5D96A8
:1002E0008C91928D9F5F9F73928F90E008958FEF16
:1002F0009FEF0895FC01918D828D981731F0828DCA
:10030000E80FF11D858D90E008958FEF9FEF089520
:10031000FC01918D228D892F90E0805C9F4F821B84
:1003200091098F739927089589EC96E00E948801BE
:1003300021E0892B09F420E0822F0895FC01848DAF
:10034000DF01A80FB11DA35ABF4F2C91848D90E0FF
:1003500001968F739927848FA689B7892C93A089DA
:10036000B1898C9180648C93938D848D981306C091
:100370000288F389E02D80818F7D80830895EF923C
:10038000FF920F931F93CF93DF93EC0181E0888F4F
:100390009B8D8C8D981305C0E889F989808185FD36
:1003A00024C0F62E0B8D10E00F5F1F4F0F73112727
:1003B000E02E8C8DE8120CC00FB607FCFACFE8894E
:1003C000F989808185FFF5CFCE010E949E01F1CF92
:1003D0008B8DFE01E80FF11DE35AFF4FF0820B8F6A
:1003E000EA89FB898081806207C0EE89FF8960838A
:1003F000E889F98980818064808381E090E0DF91E1
:10040000CF911F910F91FF90EF900895CF93DF93BD
:10041000EC01888D8823C9F0EA89FB89808185FDFC
:1004200005C0A889B9898C9186FD0FC00FB607FC5D
:10043000F5CF808185FFF2CFA889B9898C9185FF9E
:10044000EDCFCE010E949E01E7CFDF91CF910895BD
:1004500080E090E0892B29F00E94940181110C9496
:10046000000008953FB7F8948091C5069091C606A4
:10047000A091C706B091C80626B5A89B05C02F3F1E
:1004800019F00196A11DB11D3FBFBA2FA92F982FBA
:100490008827820F911DA11DB11DBC01CD0142E035
:1004A000660F771F881F991F4A95D1F708950E94FC
:1004B000CC101F920F920FB60F9211242F933F93DF
:1004C0004F935F936F937F938F939F93AF93BF935C
:1004D000EF93FF9389EC96E00E949E01FF91EF91CC
:1004E000BF91AF919F918F917F916F915F914F914C
:1004F0003F912F910F900FBE0F901F9018951F9254
:100500000F920FB60F9211242F938F939F93EF9317
:10051000FF93E091D906F091DA068081E091DF0641
:10052000F091E00682FD12C090818091E2068F5F1B
:100530008F732091E306821751F0E091E206F0E01C
:10054000E753F94F958F8093E20601C08081FF91B8
:10055000EF919F918F912F910F900FBE0F901F9051
:100560001895833081F028F4813099F08230A1F021
:1005700008958730A9F08830B9F08430D1F48091A3
:1005800080008F7D03C0809180008F7780938000F2
:10059000089584B58F7702C084B58F7D84BD08959A
:1005A0008091B0008F7703C08091B0008F7D8093E1
:1005B000B00008951F93CF93DF93282F30E0F90107
:1005C000EC55FF4F8491F901E057FF4FD491F901A9
:1005D000E458FF4FC491CC23C9F0162F81110E941B
:1005E000B102EC2FF0E0EE0FFF1FE353FF4FA59198
:1005F000B4918FB7F894111105C09C91ED2FE0953F
:10060000E92302C0EC91ED2BEC938FBFDF91CF91EA
:100610001F910895CF93DF9390E0FC01E057FF4FC7
:100620002491FC01E458FF4F8491882361F190E00C
:10063000880F991FFC01E859FF4FC591D491FC0127
:10064000E353FF4FA591B491611109C09FB7F8948E
:100650008881209582238883EC912E230BC0623001
:1006600061F49FB7F8943881822F80958323888323
:10067000EC912E2B2C939FBF06C08FB7F894E88186
:100680002E2B28838FBFDF91CF9108958F929F9259
:10069000AF92BF92CF92DF92EF92FF926B017C01FB
:1006A0000E9432024B015C01C114D104E104F10447
:1006B000F1F00E943202DC01CB0188199909AA09E4
:1006C000BB09883E9340A105B10570F321E0C21A31
:1006D000D108E108F10888EE880E83E0981EA11C7D
:1006E000B11CC114D104E104F10419F7DDCFFF906E
:1006F000EF90DF90CF90BF90AF909F908F90089534
:100700002FB7F8946091C1067091C2068091C3061C
:100710009091C4062FBF08951F920F920FB60F92AB
:1007200011242F933F938F939F93AF93BF93809107
:10073000C1069091C206A091C306B091C406309143
:10074000C00623E0230F2D3720F40196A11DB11D13
:1007500005C026E8230F0296A11DB11D2093C006F7
:100760008093C1069093C206A093C306B093C406BB
:100770008091C5069091C606A091C706B091C806A3
:100780000196A11DB11D8093C5069093C606A09346
:10079000C706B093C806BF91AF919F918F913F91CB
:1007A0002F910F900FBE0F901F9018959FEF909371
:1007B000B6012FE32093B7012FEC2093B80123EF6C
:1007C0002093B9012CEF2093BA019093BB0193ECD5
:1007D0009093BC0190E89093BD018093BE019093EB
:1007E000BF019093C0016093C1019093C2019093A7
:1007F000C30127E030E080E0F901EA54FE4F908128
:1008000089272F5F3F4F2E303105B1F73093B50167
:100810002093B401982F9A6A9093C40186958A6AAE
:100820008093C50188EC8093C6011092C70108959A
:100830008FB7F8948091BF068FBF08958EBD0000DA
:100840000DB407FEFDCF8EB508958FEF0C941E04F6
:100850008CBD9DBD0895009769F0FC0101900020BA
:10086000E9F73197AF01481B590BBC0189EC96E0C1
:100870000C94280180E090E0089561E080916A077F
:100880000E94DA0280917407811110927407089512
:1008900080916C07811101C0089580916D0790913E
:1008A0006E079C012F5F3F4F30936E0720936D07BB
:1008B0008230924018F40E942504EFCF0E943D043C
:1008C00010926C07089580917407811109C081E02E
:1008D0008093740780917207909173070E94280497
:1008E00060E080916A070C94DA020F931F93CF9314
:1008F000DF93EC010E9480038B010E9425048F3F4F
:1009000049F00E948003601B710B6C177D07A8F3F0
:1009100080E001C081E0DF91CF911F910F91089598
:10092000EF92FF921F93CF93DF9300D000D0CDB70B
:10093000DEB7182F49835A836B837C830E94480457
:100940000E9463048CE291E00E947504812F806410
:100950000E941E0488E1E82EF12C7C816B815A8173
:100960004981DB01CA010E2C04C0B695A795979565
:1009700087950A94D2F749835A836B837C830E94BC
:100980001E0428E0E21AF10849815A816B817C81BA
:1009900088EFE8168FEFF80621F7112321F01830C1
:1009A00021F487E803C085E901C08FEF0E941E048F
:1009B00010E00E9425048093700787FF04C01F3F4A
:1009C00011F01F5FF6CF0F900F900F900F90DF91F7
:1009D000CF911F91FF90EF9008950C942B048F926C
:1009E0009F92AF92BF920F931F93CF93DF93CDB798
:1009F000DEB7A1970FB6F894DEBF0FBECDBF19A228
:100A0000423008F44AE08E010F5D1F4F842E912C76
:100A1000A12CB12CA50194010E949010E62FB901E0
:100A2000CA0101501109EA3014F4E05D01C0E95C2B
:100A3000D801EC93232B242B252B61F7C8010E94AE
:100A40002B04A1960FB6F894DEBF0FBECDBFDF9189
:100A5000CF911F910F91BF90AF909F908F9008956D
:100A6000CF92DF92EF92FF92CF93DF936C01990FB9
:100A7000EE08FF08F7FE1FC0E091C906F091CA0614
:100A80000190F081E02D6DE289EC96E00995EC0192
:100A900066277727CB016C197D098E099F094AE0EB
:100AA0000E94EF048C0F9D1FDF91CF91FF90EF907C
:100AB000DF90CF9008954AE0C701B601DF91CF9152
:100AC000FF90EF90DF90CF900C94EF04CF93DF93E3
:100AD000CDB7DEB72B970FB6F894DEBF0FBECDBFF4
:100AE000789484B5826084BD84B5816084BD85B509
:100AF000826085BD85B5816085BD80916E00816015
:100B000080936E00109281008091810082608093BA
:100B100081008091810081608093810080918000BC
:100B20008160809380008091B10084608093B100E7
:100B30008091B00081608093B00080917A008460E1
:100B400080937A0080917A00826080937A0080910D
:100B50007A00816080937A0080917A008068809327
:100B60007A001092C1008FEF88B987B915B880EC70
:100B70008BB91AB880E880BFE091D906F091DA0607
:100B800082E08083E091D506F091D6061082E09154
:100B9000D706F091D8068FEC80831092E106E091A1
:100BA000DD06F091DE0686E08083E091DB06F091C1
:100BB000DC06808180618083E091DB06F091DC06B9
:100BC000808188608083E091DB06F091DC06808183
:100BD00080688083E091DB06F091DC0680818F7D68
:100BE000808383E191E00E94ED0480E090E00E9428
:100BF0002F1090E09093B8068093B7068F3F910531
:100C000021F41092B8061092B7068091B706909121
:100C1000B80664E070E00E947C109093B806809360
:100C2000B70689E291E00E94ED048091B7069091A9
:100C3000B8060E94300560E081E10E940A038CE35F
:100C400091E00E94ED041092710710926F071092CC
:100C50006C0710926B078AE080936A070E948003FA
:100C60008B0161E080916A070E940A0361E0809134
:100C70006A070E94DA02FFB6F8948091B6048111E7
:100C800027C0E6E8F0E08491EAE9F0E09491E82FEB
:100C9000F0E0EE0FFF1FE859FF4FA591B491EC91E2
:100CA000E92321F461E08AE00E94DA0261E08AE04F
:100CB0000E940A038CB580618CBD8CB580648CBDAC
:100CC00061E08DE00E940A0361E08BE00E940A036C
:100CD0008091B6048F5F8093B604FFBE82E5809357
:100CE00072071092730780917207909173070E94A8
:100CF00028044AE0F42E8FEF0E941E04FA94F110AB
:100D0000FACF0E94630440E050E0BA0180E00E9404
:100D10009004F82E8093700731E0831749F00E9409
:100D20008003601B710B613D774068F381E04EC02A
:100D30004AEA51E060E070E088E00E94900482FF9F
:100D400003C0F092710710C034E0F32E0E94250416
:100D500080937007FA94F110F9CF8A3A11F082E08B
:100D600035C082E08093710780917107823021F055
:100D7000C12CD12C760105C0C12CD12CE12C20E452
:100D8000F22E40E050E0BA0187E30E949004B701E0
:100D9000A60189E20E94900480937007882349F09D
:100DA0000E948003601B710B613D774050F388E027
:100DB0000DC080917107823059F540E050E0BA01D2
:100DC0008AE30E9490048823A9F086E080936B0751
:100DD0000E943D0488E491E00E94ED04789483E54C
:100DE00091E00E94ED0461E082E10E940A0305E0C7
:100DF00010E02AC00E942504807C803C19F483E026
:100E0000809371070E9425040E9425040E942504F6
:100E10000E943D0480E5809372071092730761E0A1
:100E200082E10E94DA0268E873E180E090E00E94CB
:100E3000460360E082E10E94DA0268EE73E080E03F
:100E400090E00E94460325C061E082E10E94DA0240
:100E50006CED75E080E090E00E94460360E082E186
:100E60000E94DA0264E670E080E090E00E944603AF
:100E700061E082E10E94DA026CED75E080E090E0D2
:100E80000E94460361E082E10E94DA0201501109EA
:100E9000D9F61AB85E98789421E030E03A8729872D
:100EA0009E012B5F3F4F38872F8305EB10E0B1EA9F
:100EB000EB2EB0E0FB2E8DE8C82E80E0D82E9FED03
:100EC000B92EF8018491F701A490F601949099202D
:100ED00009F439C081110E94B102E92DF0E0EE0F52
:100EE000FF1FEE58FF4FA591B4918C91A82259F1A4
:100EF0008091B7069091B80601969093B8068093BA
:100F0000B7060E9430058091B7069091B80664E05C
:100F100070E00E947C108093B7069093B806682F0B
:100F200080E090E00E94371061E082E10E94DA02E6
:100F300089E291E00E94ED048091B7069091B80695
:100F40000E943005FFCFB7B889B18C7390E09595BA
:100F50008795959587958C3091050CF02DC58A3035
:100F600091050CF40BC5F8948FEF87B986EB91E0EF
:100F70000E949700682F882311F0789496CF789478
:100F80009091C401953809F4D1C08091BC0120E052
:100F900030E040E050E02430310559F0F901E754E9
:100FA000F94F7081781711F04F5F5F4F2F5F3F4F00
:100FB000F2CF3093BE062093BD064430510509F0B0
:100FC000B5C08FED87B945983599FECFE6EBEE2E8B
:100FD000E1E0FE2EF7019F01265B3140690181911E
:100FE0008111F9CF86E291E00E94ED0400E010E06B
:100FF00066E6A62E61E0B62ECE0101963C0171E7B1
:10100000472E71E0572E0C151D050CF071C01F9373
:101010000F93BF92AF927F926F920E94D110C30143
:101020000E94ED040F900F900F900F900F900F9073
:10103000212C312CC101800F911F8C159D052CF0A6
:101040008DE691E00E94ED0418C0F701E20DF31D5A
:1010500080811F928F935F924F9298859F93AF816B
:10106000AF930E94D110CE0105960E94ED040F901F
:101070000F900F900F900F900F90BFEF2B1A3B0A1D
:10108000E0E12E163104B1F687E791E00E94ED040D
:10109000212C312CF701E20DF31D608180EE860FCB
:1010A000813688F4C101800F911F8C159D055CF479
:1010B000E091C906F091CA060190F081E02D89EC1B
:1010C00096E0099504C083E891E00E94ED04FFEFEB
:1010D0002F1A3F0A20E122163104E1F686E291E060
:1010E0000E94ED04005F1F4F30E1E30EF11C8BCF37
:1010F0008091C401823879F020F4803808F4D5CE8C
:1011000003C0833809F0D1CE359BFECF3599FECF91
:10111000359BFECFCACE359BFECF3599FECF359B92
:10112000FECF3599FECF359BFECFBFCE45984A996D
:10113000FECF923809F489C2B0F59038D9F19138D0
:1011400009F0B3CE1091BC01C090C6018091CA01D4
:101150009091C9011092BE061092BD06D12C2601B5
:1011600053E0440C551C5A95E1F7B0E84B22552446
:101170009F77492A052C000C6608770864E0CC0CA0
:10118000DD1C6A95E1F7E0E8CE22DD248F77C82ADE
:10119000DC2CCC240D2C000CEE08FF08E4E02E2EF5
:1011A000312C0FEFFEC0933809F468C3953809F469
:1011B00091C37BCE61E082E10E94DA02D090BC0153
:1011C0001092BE061092BD06F0E44F2EA8EBEA2E58
:1011D000A0E0FA2E0FEFBFE3BB2E1FECA12E83EF92
:1011E000982E9CEF892E23EC722E10E831E8C32E46
:1011F00044E8642E50EF552E8091BD069091BE06B6
:10120000843091050CF051CEFC01E754F94F8081F8
:101210008D11AEC08091C601A8E08A9FC001112443
:10122000982F90788091C7018F77892B0093B60112
:10123000B092B701A092B8019092B9018092BA0120
:101240000093BB017092BC011093BD01D092BE010E
:10125000C092BF011093C0011093C1016092C201FE
:10126000833009F049C083E88093C3015092C401E0
:1012700088EF8093C5010093C6010093C7011093C6
:10128000C8018DE88093C9018DE68093CA0110934F
:10129000CC0184E78093CD011093D40180E2809348
:1012A000D5011093DC0182E88093DD011093DE010B
:1012B000C092DF0180E98093E00127E030E088EF11
:1012C000F901EA54FE4F908189272F5F3F4F2E305E
:1012D0003105B1F73093B5012093B401982F9A6A84
:1012E0009093E10186958A6A8093E20188EC80936D
:1012F000E3011092E4012AC01093C3015092C4018B
:1013000088EF8093C5010093C6010093C701109335
:10131000C80127E030E0F901EA54FE4F90818927A7
:101320002F5F3F4F2E303105B1F73093B501209339
:10133000B401982F9A6A9093C90186958A6A80931E
:10134000CA0188EC8093CB011092CC01F8944AB882
:1013500086EB91E00E94EC001AB87894FF92EF922D
:101360000E948B0D60E082E10E94DA020F900F90E4
:101370008091BD069091BE0601969093BE06809323
:10138000BD063ACFFC01E754F94F2081211789F0BF
:101390008091BD069091BE0601969093BE06809303
:1013A000BD068091BD069091BE068430910554F330
:1013B0007CCD2091B7063091B806820F931FB10102
:1013C0000E947C10092E000CAA0BBB0BDC01992794
:1013D0008827840D951DA61DB71D4C015D018C0C41
:1013E0009D1CAE1CBF1C61E082E10E94DA0280916C
:1013F0006C078823A1F08091660790916707A09100
:101400006807B091690788169906AA06BB0639F4E1
:1014100080916D0790916E07892B09F43FC08092EF
:10142000660790926707A0926807B092690780915B
:101430007107833039F039E0880C991CAA1CBB1C59
:101440003A95D1F7B501A40181E10E949004882367
:1014500021F083E080936B0742C00E9480035B0110
:101460000E942504809370078F3F49F40E948003F7
:101470006A197B096D32714098F38FE003C08E3F8B
:1014800031F08DE080936B070E943D0428C01092DC
:101490006E0710926D0781E080936C0727EBA22EF8
:1014A00024E0B22E0E942504D5018D935D01B7EB97
:1014B000AB16B6E0BB06B1F780916D0790916E0751
:1014C0009E5F90936E0780936D0720916F07222394
:1014D00019F08115924048F00E94480406C00E940D
:1014E0003D0489E791E00E94ED040093B601FFE31B
:1014F000F093B7018FEC8093B80183EF8093B9012B
:101500008CEF8093BA010093BB0183EC8093BC0104
:1015100080E88093BD011093BE0192E89093BF01D3
:101520008093C0018093C10181E88093C20189EC5E
:101530008093C3019091B704892F86958074806849
:101540008093C40190689093C50147EB54E060E03C
:1015500070E081E090E0B12CFA01E80FF91F2081E2
:1015600030E0082E02C0359527950A94E2F7E0E8AE
:10157000F0E0082E02C0F595E7950A94E2F72E23D5
:10158000B22A01968830910539F7DB01AA54BE4F83
:101590008B2D806850968C93509781E090E09D0150
:1015A000280F391FFA01E80FF91FE081E068BE2E0D
:1015B000F901B08A01968830910589F7495F5F4F3C
:1015C000685F7F4F6834F2E07F0719F620E030E073
:1015D00080E0F901E954FB4F908189272F5F3F4F4D
:1015E000211592E03907A9F727E030E0F901EA5424
:1015F000FE4F908189272F5F3F4F2E303105B1F785
:101600003093B5012093B401982F9A6A90930E04F9
:1016100086958A6A80930F0488EC80931004109258
:101620001104F89480E48AB986EB91E00E94EC0002
:101630001AB87894813021F485E891E00E94ED0495
:1016400060E082E10E94DA02A3CEF090BC01109229
:10165000BE061092BD060FEF94E1E92E8091BD0603
:101660009091BE06843091050CF01FCCFC01E7542C
:10167000F94F80818F11F4C08090C9019090C6010C
:101680002091CA012B87F89407B986EB91E00E945C
:101690009700182F8111F9CF789445984A99FECF79
:1016A000C090BD06D090BE06A090B706B090B80618
:1016B0008091C301880F80789091C4019F77892B16
:1016C0008093B70487EB482E84E0582EA20180E077
:1016D00090E0FC01EA54FE4F2784312CFC01EA53D0
:1016E000FE4F60E070E06F5F7F4FA1913A01660EA0
:1016F000771EAF779101062E01C0220F0A94EAF7F8
:1017000020782A2BD3012C936730710561F7089656
:10171000495F5F4F8834B2E09B07D9F680E090E0E4
:1017200020E0FC01E954FB4F30812327019681150D
:10173000E2E09E07B1F786E090E0FC01EA54FE4F3C
:101740003081232701968D309105B9F79093B5012B
:101750008093B40180910E048575880F90910D04DB
:101760009575892B281330C02CC18EEF0E941E0462
:10177000D2018D912D010E941E04B7EB4B16B6E0ED
:101780005B06B1F78FEF0E941E048FEF0E941E04CC
:101790000E942504809370078F71853009F467C11A
:1017A000E1E1E0936B070E943D040E943D0481E962
:1017B00091E00E94ED048EE991E00E94ED044AE080
:1017C000C501B4010E94EF0416E00093B6018FE357
:1017D0008093B7018FEC8093B80183EF8093B901B8
:1017E0008CEF8093BA010093BB0183EC8093BC0122
:1017F00080E88093BD01F092BE0191E89093BF0113
:101800008093C00110681093C1018093C20180933E
:10181000C30127E030E080E0F901EA54FE4F9081F7
:1018200089272F5F3F4F2E303105B1F73093B50137
:101830002093B401982F9A6A9093C40186958A6A7E
:101840008093C50188EC8093C6011092C701F8947B
:1018500080E48AB986EB91E00E94EC001AB8789493
:1018600060E082E10E94DA028091BD069091BE069E
:1018700001969093BE068093BD06F0CE1091BC01F8
:101880001092BE061092BD0600E42091BD06309174
:10189000BE06243031050CF008CBF901E754F94FAE
:1018A000808181130CC060E8812F0E94D603F894D8
:1018B0000AB986EB91E00E94EC0078941AB8209166
:1018C000BD063091BE062F5F3F4F3093BE0620937A
:1018D000BD06DBCF8091BC0129853A8524303105D6
:1018E00054F4F901E854F94F80832F5F3F4F3A8752
:1018F000298760E80CC029853A852430310539F400
:101900008093BC066FEF25E030E03A8729870E947C
:10191000D603F89480E48AB986EB91E00E94EC004B
:101920001AB8789429853A852530310509F0BDCA61
:101930001092BE061092BD068091BD069091BE0623
:1019400004970CF0B2CA89EA91E00E94ED04E0919C
:10195000BD06F091BE06E754F94F608170E080E06B
:1019600090E040E10E94EF048091BD069091BE0698
:1019700001969093BE068093BD06DECF059709F0D1
:10198000A0CA8CE591E00E94ED0489B18C7384318A
:10199000E1F380E090E0FC01E754F94F10820196FA
:1019A00084309105C1F79093BE068093BD0621E077
:1019B00030E03A87298779CA0E97029708F081CAE2
:1019C000D2CA292D30E0C90143E0880F991F4A95FA
:1019D000E1F780789927482D4F773C01642A072C3E
:1019E000000C88089908C6018A0D9B1D64E070E010
:1019F0000E947C10092E000CAA0BBB0BDC0199275E
:101A00008827B401A301480F591F6A1F7B1FC90112
:101A1000E4E0880F991FEA95E1F7807899272B85F4
:101A20002F77822B982F8827092E000CAA0BBB0B2F
:101A30004A015B01880E991EAA1EBB1E61E082E16D
:101A40000E94DA0280917107B501A401833039F058
:101A5000B9E0440F551F661F771FBA95D1F788E18B
:101A60000E949004882309F480CEF4E007C088E542
:101A700092E00E947504811104C0F5E1F0936B07B8
:101A800094CE40E050E0BA018DE00E9490048111B4
:101A900004C00E942504882319F0E0926B0785CECC
:101AA0000E943D0492CEE9ECF6E01382128288EEA9
:101AB00093E0A0E0B0E084839583A683B78385E0BC
:101AC00091E09183808385EC90E09587848784EC16
:101AD00090E09787868780EC90E0918B808B81ECFB
:101AE00090E0938B828B82EC90E0958B848B86ECDC
:101AF00090E0978B868B118E128E138E148EE6E6F5
:101B0000F7E01582168211861386E2E7F7E080E59A
:101B1000808311820895A0E0B0E0E1E9FDE00C943B
:101B20005310AE01495F5F4FDA016D917D91AD01B8
:101B300005E717E0F80182819381DC0113962C916F
:101B40001397286013962C930E94B10DD80112961A
:101B5000ED91FC9113972381277F2383E4E00C947C
:101B60006F10ACE0B0E0E7EBFDE00C9445107C01B9
:101B70006B018A01FC0117821682838181FFBDC13E
:101B8000CE0101964C01F7019381F60193FD8591F9
:101B900093FF81916F01882309F4ABC1853239F439
:101BA00093FD859193FF81916F01853229F4B701EF
:101BB00090E00E94990FE7CF512C312C20E0203289
:101BC000A0F48B3269F030F4803259F0833269F43A
:101BD00020612CC08D3239F0803339F4216026C069
:101BE0002260246023C0286021C027FD27C030ED7B
:101BF000380F3A3078F426FF06C0FAE05F9E300DC9
:101C00001124532E13C08AE0389E300D1124332E38
:101C100020620CC08E3221F426FD6BC1206406C008
:101C20008C3611F4206802C0883641F4F60193FD29
:101C3000859193FF81916F018111C1CF982F9F7D75
:101C40009554933028F40C5F1F4FFFE3F9830DC0C8
:101C5000833631F0833771F0833509F05BC022C0E1
:101C6000F801808189830E5F1F4F44244394512CD7
:101C7000540115C03801F2E06F0E711CF801A0800C
:101C8000B18026FF03C0652D70E002C06FEF7FEFCB
:101C9000C5012C870E948E0F2C0183012C852F7784
:101CA000222E17C03801F2E06F0E711CF801A080DF
:101CB000B18026FF03C0652D70E002C06FEF7FEF9B
:101CC000C5012C870E94830F2C012C852068222EB1
:101CD000830123FC1BC0832D90E048165906B0F405
:101CE000B70180E290E00E94990F3A94F4CFF50199
:101CF00027FC859127FE81915F01B70190E00E944A
:101D0000990F31103A94F1E04F1A510841145104DF
:101D100071F7E5C0843611F0893639F5F80127FFEF
:101D200007C060817181828193810C5F1F4F08C061
:101D300060817181072E000C880B990B0E5F1F4F7D
:101D40002F76722E97FF09C09095809570956195BA
:101D50007F4F8F4F9F4F2068722E2AE030E0A40102
:101D60000E94D10FA82EA81844C0853729F42F7ED1
:101D7000B22E2AE030E025C0F22FF97FBF2E8F3639
:101D8000C1F018F4883579F0B4C0803719F088377D
:101D900021F0AFC02F2F2061B22EB4FE0DC08B2DCD
:101DA0008460B82E09C024FF0AC09F2F9660B92E08
:101DB00006C028E030E005C020E130E002C020E1AC
:101DC00032E0F801B7FE07C06081718182819381A2
:101DD0000C5F1F4F06C06081718180E090E00E5F54
:101DE0001F4FA4010E94D10FA82EA818FB2DFF772A
:101DF0007F2E76FE0BC0372D3E7FA51450F474FE67
:101E00000AC072FC08C0372D3E7E05C0BA2C372DA3
:101E100003C0BA2C01C0B52C34FF0DC0FE01EA0D81
:101E2000F11D8081803311F4397E09C032FF06C074
:101E3000B394B39404C0832F867809F0B39433FD30
:101E400013C030FF06C05A2CB31418F4530C5B189F
:101E5000B32CB31468F4B70180E290E03C870E9491
:101E6000990FB3943C85F5CFB31410F43B1801C01F
:101E7000312C34FF12C0B70180E390E03C870E9410
:101E8000990F3C8532FF17C031FD03C088E790E011
:101E900002C088E590E0B7010CC0832F867859F026
:101EA00031FF02C08BE201C080E237FD8DE2B70155
:101EB00090E00E94990FA51438F4B70180E390E0F8
:101EC0000E94990F5A94F7CFAA94F401EA0DF11DDC
:101ED0008081B70190E00E94990FA110F5CF3320C7
:101EE00009F451CEB70180E290E00E94990F3A9434
:101EF000F6CFF7018681978102C08FEF9FEF2C9676
:101F0000E2E10C946110FC010590615070400110F9
:101F1000D8F7809590958E0F9F1F0895FC01615012
:101F2000704001900110D8F7809590958E0F9F1FFB
:101F300008950F931F93CF93DF93FB01238121FD1E
:101F400003C08FEF9FEF28C022FF16C04681578144
:101F5000248135814217530744F4A081B1819D014A
:101F60002F5F3F4F318320838C93268137812F5FF2
:101F70003F4F3783268310C0EB01092F182F0084B1
:101F8000F185E02D0995892BE1F68E819F810196DF
:101F90009F838E83812F902FDF91CF911F910F917F
:101FA0000895FA01AA27283051F1203181F1E894EF
:101FB0006F936E7F6E5F7F4F8F4F9F4FAF4FB1E03C
:101FC0003ED0B4E03CD0670F781F891F9A1FA11D37
:101FD000680F791F8A1F911DA11D6A0F711D811D38
:101FE000911DA11D20D009F468943F912AE0269FFD
:101FF00011243019305D3193DEF6CF010895462F5C
:102000004770405D4193B3E00FD0C9F7F6CF462F3C
:102010004F70405D4A3318F0495D31FD40524193A5
:1020200002D0A9F7EACFB4E0A69597958795779562
:102030006795BA95C9F700976105710508959B01E9
:10204000AC010A2E06945795479537952795BA9572
:10205000C9F7620F731F841F951FA01D0895F9997A
:10206000FECF92BD81BDF89A992780B50895262F9D
:10207000F999FECF1FBA92BD81BD20BD0FB6F8946D
:10208000FA9AF99A0FBE019608952F923F924F92B5
:102090005F926F927F928F929F92AF92BF92CF92F8
:1020A000DF92EF92FF920F931F93CF93DF93CDB701
:1020B000DEB7CA1BDB0B0FB6F894DEBF0FBECDBF79
:1020C00009942A88398848885F846E847D848C844A
:1020D0009B84AA84B984C884DF80EE80FD800C8153
:1020E0001B81AA81B981CE0FD11D0FB6F894DEBF36
:1020F0000FBECDBFED01089597FB072E16F4009497
:1021000007D077FD09D00E94B21007FC05D03EF43D
:10211000909581959F4F0895709561957F4F089593
:10212000A1E21A2EAA1BBB1BFD010DC0AA1FBB1FDB
:10213000EE1FFF1FA217B307E407F50720F0A21B4D
:10214000B30BE40BF50B661F771F881F991F1A94BA
:1021500069F760957095809590959B01AC01BD01E4
:10216000CF010895AA1BBB1B51E107C0AA1FBB1FCB
:10217000A617B70710F0A61BB70B881F991F5A9513
:10218000A9F780959095BC01CD010895EE0FFF1F32
:102190000590F491E02D099481E090E0F8940C947E
:1021A000F410AEE0B0E0E7EDF0E10C9453100D89CF
:1021B0001E8986E08C831A8309838FEF9FE79E83B5
:1021C0008D83AE01475E5F4F6F89788DCE0101969A
:1021D0000E94B10D2F813885F801E20FF31F1082A4
:0C21E0002E96E4E00C946F10F894FFCFF2
:1021EC000000000000BF01280157010602880166AB
:1021FC00017A010D0A536D617274706F72745344DD
:10220C002076312E31320D0A000D0A426F6F742088
:10221C00706172746974696F6E3A20000D0A4361C3
:10222C00726420696E6974004572726F722063610A
:10223C007264000D0A4572726F7221000D0A5265AC
:10224C007365740D0A00253034583A200020202084
:10225C00002530325820002D000D0A526561642093
:10226C004572722E000D0A53656E74206572722EC3
:10227C00000D0A5772697465204572722E00204257
:10228C006C6F636B206E2E3A000D0A447269766592
:04229C003A200000E4
:00000001FF
